{
  "contractName": "Thread",
  "abi": [
    {
      "constant": true,
      "inputs": [],
      "name": "name",
      "outputs": [
        {
          "name": "",
          "type": "string"
        }
      ],
      "payable": false,
      "stateMutability": "view",
      "type": "function",
      "signature": "0x06fdde03"
    },
    {
      "constant": true,
      "inputs": [],
      "name": "myPublicKey",
      "outputs": [
        {
          "name": "",
          "type": "address"
        }
      ],
      "payable": false,
      "stateMutability": "view",
      "type": "function",
      "signature": "0x07465d97"
    },
    {
      "constant": true,
      "inputs": [
        {
          "name": "",
          "type": "uint256"
        }
      ],
      "name": "replies",
      "outputs": [
        {
          "name": "id",
          "type": "uint256"
        },
        {
          "name": "poster",
          "type": "address"
        },
        {
          "name": "content",
          "type": "string"
        },
        {
          "name": "weiEarned",
          "type": "uint256"
        }
      ],
      "payable": false,
      "stateMutability": "view",
      "type": "function",
      "signature": "0x5c7c366d"
    },
    {
      "constant": true,
      "inputs": [],
      "name": "replyCount",
      "outputs": [
        {
          "name": "",
          "type": "uint256"
        }
      ],
      "payable": false,
      "stateMutability": "view",
      "type": "function",
      "signature": "0x916a0386"
    },
    {
      "inputs": [],
      "payable": false,
      "stateMutability": "nonpayable",
      "type": "constructor",
      "signature": "constructor"
    },
    {
      "anonymous": false,
      "inputs": [
        {
          "indexed": false,
          "name": "id",
          "type": "uint256"
        },
        {
          "indexed": false,
          "name": "poster",
          "type": "address"
        },
        {
          "indexed": false,
          "name": "content",
          "type": "string"
        },
        {
          "indexed": false,
          "name": "weiEarned",
          "type": "uint256"
        }
      ],
      "name": "ReplyAdded",
      "type": "event",
      "signature": "0xd6bd76115d05b7e2d447748ad7f8370720b2dbeded16812adaacddfba123ea3d"
    },
    {
      "anonymous": false,
      "inputs": [
        {
          "indexed": false,
          "name": "to",
          "type": "address"
        },
        {
          "indexed": false,
          "name": "weiEarned",
          "type": "uint256"
        }
      ],
      "name": "ReplyFunded",
      "type": "event",
      "signature": "0xf4aa97c391114a53759634ae49d5e1fb00f843ab94786e4ea509e1da6164f515"
    },
    {
      "anonymous": false,
      "inputs": [
        {
          "indexed": false,
          "name": "to",
          "type": "address"
        },
        {
          "indexed": false,
          "name": "weiEarned",
          "type": "uint256"
        }
      ],
      "name": "TransactionFeeProcessed",
      "type": "event",
      "signature": "0x64b7273b7d23eceec06ed84ab10de0ae7d599934dd9ef3ccb07a1fed8c667e28"
    },
    {
      "constant": false,
      "inputs": [
        {
          "name": "_content",
          "type": "string"
        }
      ],
      "name": "addReply",
      "outputs": [],
      "payable": false,
      "stateMutability": "nonpayable",
      "type": "function",
      "signature": "0x62b1d9d7"
    },
    {
      "constant": false,
      "inputs": [
        {
          "name": "_to",
          "type": "address"
        }
      ],
      "name": "payPoster",
      "outputs": [],
      "payable": true,
      "stateMutability": "payable",
      "type": "function",
      "signature": "0xf7c5fe0a"
    }
  ],
  "bytecode": "0x608060405273d501ed3c3626402fa5a381d844b54a265bff0108600160006101000a81548173ffffffffffffffffffffffffffffffffffffffff021916908373ffffffffffffffffffffffffffffffffffffffff160217905550600060025534801561006a57600080fd5b506040805190810160405280601581526020017f457068656d6572616c204d61696e205468726561640000000000000000000000815250600090805190602001906100b69291906100bc565b50610161565b828054600181600116156101000203166002900490600052602060002090601f016020900481019282601f106100fd57805160ff191683800117855561012b565b8280016001018555821561012b579182015b8281111561012a57825182559160200191906001019061010f565b5b509050610138919061013c565b5090565b61015e91905b8082111561015a576000816000905550600101610142565b5090565b90565b610a01806101706000396000f3fe608060405260043610610078576000357c0100000000000000000000000000000000000000000000000000000000900463ffffffff16806306fdde031461007d57806307465d971461010d5780635c7c366d1461016457806362b1d9d714610259578063916a038614610321578063f7c5fe0a1461034c575b600080fd5b34801561008957600080fd5b50610092610390565b6040518080602001828103825283818151815260200191508051906020019080838360005b838110156100d25780820151818401526020810190506100b7565b50505050905090810190601f1680156100ff5780820380516001836020036101000a031916815260200191505b509250505060405180910390f35b34801561011957600080fd5b5061012261042e565b604051808273ffffffffffffffffffffffffffffffffffffffff1673ffffffffffffffffffffffffffffffffffffffff16815260200191505060405180910390f35b34801561017057600080fd5b5061019d6004803603602081101561018757600080fd5b8101908080359060200190929190505050610454565b604051808581526020018473ffffffffffffffffffffffffffffffffffffffff1673ffffffffffffffffffffffffffffffffffffffff16815260200180602001838152602001828103825284818151815260200191508051906020019080838360005b8381101561021b578082015181840152602081019050610200565b50505050905090810190601f1680156102485780820380516001836020036101000a031916815260200191505b509550505050505060405180910390f35b34801561026557600080fd5b5061031f6004803603602081101561027c57600080fd5b810190808035906020019064010000000081111561029957600080fd5b8201836020820111156102ab57600080fd5b803590602001918460018302840111640100000000831117156102cd57600080fd5b91908080601f016020809104026020016040519081016040528093929190818152602001838380828437600081840152601f19601f82011690508083019250505050505050919291929050505061053c565b005b34801561032d57600080fd5b50610336610734565b6040518082815260200191505060405180910390f35b61038e6004803603602081101561036257600080fd5b81019080803573ffffffffffffffffffffffffffffffffffffffff16906020019092919050505061073a565b005b60008054600181600116156101000203166002900480601f0160208091040260200160405190810160405280929190818152602001828054600181600116156101000203166002900480156104265780601f106103fb57610100808354040283529160200191610426565b820191906000526020600020905b81548152906001019060200180831161040957829003601f168201915b505050505081565b600160009054906101000a900473ffffffffffffffffffffffffffffffffffffffff1681565b60036020528060005260406000206000915090508060000154908060010160009054906101000a900473ffffffffffffffffffffffffffffffffffffffff1690806002018054600181600116156101000203166002900480601f01602080910402602001604051908101604052809291908181526020018280546001816001161561010002031660029004801561052c5780601f106105015761010080835404028352916020019161052c565b820191906000526020600020905b81548152906001019060200180831161050f57829003601f168201915b5050505050908060030154905084565b6000815111801561055057506103e7815111155b151561055b57600080fd5b620f423f60025414156105715760006002819055505b60026000815480929190600101919050555060806040519081016040528060025481526020013373ffffffffffffffffffffffffffffffffffffffff16815260200182815260200160008152506003600060025481526020019081526020016000206000820151816000015560208201518160010160006101000a81548173ffffffffffffffffffffffffffffffffffffffff021916908373ffffffffffffffffffffffffffffffffffffffff1602179055506040820151816002019080519060200190610640929190610930565b50606082015181600301559050507fd6bd76115d05b7e2d447748ad7f8370720b2dbeded16812adaacddfba123ea3d60025433836000604051808581526020018473ffffffffffffffffffffffffffffffffffffffff1673ffffffffffffffffffffffffffffffffffffffff16815260200180602001838152602001828103825284818151815260200191508051906020019080838360005b838110156106f45780820151818401526020810190506106d9565b50505050905090810190601f1680156107215780820380516001836020036101000a031916815260200191505b509550505050505060405180910390a150565b60025481565b60003411151561074957600080fd5b600160009054906101000a900473ffffffffffffffffffffffffffffffffffffffff1673ffffffffffffffffffffffffffffffffffffffff166108fc600560643481151561079357fe5b04029081150290604051600060405180830381858888f193505050501580156107c0573d6000803e3d6000fd5b508073ffffffffffffffffffffffffffffffffffffffff166108fc605f6064348115156107e957fe5b04029081150290604051600060405180830381858888f19350505050158015610816573d6000803e3d6000fd5b507ff4aa97c391114a53759634ae49d5e1fb00f843ab94786e4ea509e1da6164f51581605f60643481151561084757fe5b0402604051808373ffffffffffffffffffffffffffffffffffffffff1673ffffffffffffffffffffffffffffffffffffffff1681526020018281526020019250505060405180910390a17f64b7273b7d23eceec06ed84ab10de0ae7d599934dd9ef3ccb07a1fed8c667e28600160009054906101000a900473ffffffffffffffffffffffffffffffffffffffff1660056064348115156108e357fe5b0402604051808373ffffffffffffffffffffffffffffffffffffffff1673ffffffffffffffffffffffffffffffffffffffff1681526020018281526020019250505060405180910390a150565b828054600181600116156101000203166002900490600052602060002090601f016020900481019282601f1061097157805160ff191683800117855561099f565b8280016001018555821561099f579182015b8281111561099e578251825591602001919060010190610983565b5b5090506109ac91906109b0565b5090565b6109d291905b808211156109ce5760008160009055506001016109b6565b5090565b9056fea165627a7a72305820b9a91a249144d50fe96fe185780e6e04b6376bcd7a620888c5ad6ad3656fef5a0029",
  "source": "pragma solidity ^0.5.0;\n\ncontract Thread {\n    string public name;\n    address payable public myPublicKey = 0xd501eD3C3626402FA5a381D844b54a265BFF0108;\n    uint public replyCount = 0;\n    mapping(uint => Reply) public replies;\n\n    struct Reply {\n        uint id;\n        address payable poster;\n        string content;\n        uint weiEarned;\n    }\n\n    event ReplyAdded(\n        uint id,\n        address payable poster,\n        string content,\n        uint weiEarned\n    );\n\n    event ReplyFunded(\n        address payable to,\n        uint weiEarned\n    ); \n\n    event TransactionFeeProcessed(\n        address payable to,\n        uint weiEarned\n    );\n\n    constructor() public {\n        name = \"Ephemeral Main Thread\";\n    }\n\n    function addReply(string memory _content) public {\n        // require content of length...\n        require(bytes(_content).length > 0 && bytes(_content).length <= 999);\n\n        // reset to 0 if reply count too high\n        if(replyCount == 999999) {\n            replyCount = 0;\n        }\n        replyCount ++;\n\n        // Create the reply - overwriting as necessary\n        replies[replyCount] = Reply(replyCount, msg.sender, _content, 0);\n        // Trigger an event\n        emit ReplyAdded(replyCount, msg.sender, _content, 0);\n    }\n\n    function payPoster(address payable _to) public payable {\n        // Require that there is enough Ether in the transaction\n        require(msg.value > 0);\n\n        // can I show Wei earned somehow but associate it with the person's ID\n\n        // Deposit my transaction fee\n        address(myPublicKey).transfer((msg.value / 100) * 5);\n\n        // Pay the seller by sending them Ether\n        address(_to).transfer((msg.value / 100) * 95);\n\n        // Trigger an event\n        emit ReplyFunded(_to, (msg.value / 100) * 95);\n        emit TransactionFeeProcessed(myPublicKey, (msg.value / 100) * 5);\n    }\n}\n",
  "sourcePath": "/Users/joshsimmons/Documents/GitHub/ephemeral/src/contracts/Thread.sol",
  "compiler": {
    "name": "solc",
    "version": "0.5.0+commit.1d4f565a.Emscripten.clang"
  },
  "schemaVersion": "3.0.1",
  "updatedAt": "2021-12-16T22:42:54.121Z",
  "devdoc": {
    "methods": {}
  },
  "userdoc": {
    "methods": {}
  }
}