{
  "contractName": "Thread",
  "abi": [
    {
      "constant": true,
      "inputs": [],
      "name": "name",
      "outputs": [
        {
          "name": "",
          "type": "string"
        }
      ],
      "payable": false,
      "stateMutability": "view",
      "type": "function"
    },
    {
      "constant": true,
      "inputs": [],
      "name": "myPublicKey",
      "outputs": [
        {
          "name": "",
          "type": "address"
        }
      ],
      "payable": false,
      "stateMutability": "view",
      "type": "function"
    },
    {
      "constant": true,
      "inputs": [
        {
          "name": "",
          "type": "uint256"
        }
      ],
      "name": "replies",
      "outputs": [
        {
          "name": "id",
          "type": "uint256"
        },
        {
          "name": "poster",
          "type": "address"
        },
        {
          "name": "content",
          "type": "string"
        }
      ],
      "payable": false,
      "stateMutability": "view",
      "type": "function"
    },
    {
      "constant": true,
      "inputs": [],
      "name": "replyCount",
      "outputs": [
        {
          "name": "",
          "type": "uint256"
        }
      ],
      "payable": false,
      "stateMutability": "view",
      "type": "function"
    },
    {
      "inputs": [],
      "payable": false,
      "stateMutability": "nonpayable",
      "type": "constructor"
    },
    {
      "anonymous": false,
      "inputs": [
        {
          "indexed": false,
          "name": "id",
          "type": "uint256"
        },
        {
          "indexed": false,
          "name": "poster",
          "type": "address"
        },
        {
          "indexed": false,
          "name": "content",
          "type": "string"
        }
      ],
      "name": "ReplyAdded",
      "type": "event"
    },
    {
      "anonymous": false,
      "inputs": [
        {
          "indexed": false,
          "name": "to",
          "type": "address"
        },
        {
          "indexed": false,
          "name": "weiEarned",
          "type": "uint256"
        }
      ],
      "name": "ReplyFunded",
      "type": "event"
    },
    {
      "anonymous": false,
      "inputs": [
        {
          "indexed": false,
          "name": "to",
          "type": "address"
        },
        {
          "indexed": false,
          "name": "weiEarned",
          "type": "uint256"
        }
      ],
      "name": "TransactionFeeProcessed",
      "type": "event"
    },
    {
      "constant": false,
      "inputs": [
        {
          "name": "_content",
          "type": "string"
        }
      ],
      "name": "addReply",
      "outputs": [],
      "payable": false,
      "stateMutability": "nonpayable",
      "type": "function"
    },
    {
      "constant": false,
      "inputs": [
        {
          "name": "_to",
          "type": "address"
        }
      ],
      "name": "payPoster",
      "outputs": [],
      "payable": true,
      "stateMutability": "payable",
      "type": "function"
    }
  ],
  "bytecode": "0x60806040527355faaa5ff75f6387e066dda8ea587ce8801c9bd5600160006101000a81548173ffffffffffffffffffffffffffffffffffffffff021916908373ffffffffffffffffffffffffffffffffffffffff160217905550600060025534801561006a57600080fd5b506040805190810160405280601581526020017f457068656d6572616c204d61696e205468726561640000000000000000000000815250600090805190602001906100b69291906100bc565b50610161565b828054600181600116156101000203166002900490600052602060002090601f016020900481019282601f106100fd57805160ff191683800117855561012b565b8280016001018555821561012b579182015b8281111561012a57825182559160200191906001019061010f565b5b509050610138919061013c565b5090565b61015e91905b8082111561015a576000816000905550600101610142565b5090565b90565b6109dd806101706000396000f3fe608060405260043610610078576000357c0100000000000000000000000000000000000000000000000000000000900463ffffffff16806306fdde031461007d57806307465d971461010d5780635c7c366d1461016457806362b1d9d714610252578063916a03861461031a578063f7c5fe0a14610345575b600080fd5b34801561008957600080fd5b50610092610389565b6040518080602001828103825283818151815260200191508051906020019080838360005b838110156100d25780820151818401526020810190506100b7565b50505050905090810190601f1680156100ff5780820380516001836020036101000a031916815260200191505b509250505060405180910390f35b34801561011957600080fd5b50610122610427565b604051808273ffffffffffffffffffffffffffffffffffffffff1673ffffffffffffffffffffffffffffffffffffffff16815260200191505060405180910390f35b34801561017057600080fd5b5061019d6004803603602081101561018757600080fd5b810190808035906020019092919050505061044d565b604051808481526020018373ffffffffffffffffffffffffffffffffffffffff1673ffffffffffffffffffffffffffffffffffffffff16815260200180602001828103825283818151815260200191508051906020019080838360005b838110156102155780820151818401526020810190506101fa565b50505050905090810190601f1680156102425780820380516001836020036101000a031916815260200191505b5094505050505060405180910390f35b34801561025e57600080fd5b506103186004803603602081101561027557600080fd5b810190808035906020019064010000000081111561029257600080fd5b8201836020820111156102a457600080fd5b803590602001918460018302840111640100000000831117156102c657600080fd5b91908080601f016020809104026020016040519081016040528093929190818152602001838380828437600081840152601f19601f82011690508083019250505050505050919291929050505061052f565b005b34801561032657600080fd5b5061032f610710565b6040518082815260200191505060405180910390f35b6103876004803603602081101561035b57600080fd5b81019080803573ffffffffffffffffffffffffffffffffffffffff169060200190929190505050610716565b005b60008054600181600116156101000203166002900480601f01602080910402602001604051908101604052809291908181526020018280546001816001161561010002031660029004801561041f5780601f106103f45761010080835404028352916020019161041f565b820191906000526020600020905b81548152906001019060200180831161040257829003601f168201915b505050505081565b600160009054906101000a900473ffffffffffffffffffffffffffffffffffffffff1681565b60036020528060005260406000206000915090508060000154908060010160009054906101000a900473ffffffffffffffffffffffffffffffffffffffff1690806002018054600181600116156101000203166002900480601f0160208091040260200160405190810160405280929190818152602001828054600181600116156101000203166002900480156105255780601f106104fa57610100808354040283529160200191610525565b820191906000526020600020905b81548152906001019060200180831161050857829003601f168201915b5050505050905083565b6000815111801561054357506103e7815111155b151561054e57600080fd5b60636002541415610566576000600281905550610579565b6002600081548092919060010191905055505b60606040519081016040528060025481526020013373ffffffffffffffffffffffffffffffffffffffff168152602001828152506003600060025481526020019081526020016000206000820151816000015560208201518160010160006101000a81548173ffffffffffffffffffffffffffffffffffffffff021916908373ffffffffffffffffffffffffffffffffffffffff160217905550604082015181600201908051906020019061062f92919061090c565b509050507f753ba5ebfed889811138a80c8f30fcc199e9b8dce14f8160d5e51391d6bf85dd6002543383604051808481526020018373ffffffffffffffffffffffffffffffffffffffff1673ffffffffffffffffffffffffffffffffffffffff16815260200180602001828103825283818151815260200191508051906020019080838360005b838110156106d15780820151818401526020810190506106b6565b50505050905090810190601f1680156106fe5780820380516001836020036101000a031916815260200191505b5094505050505060405180910390a150565b60025481565b60003411151561072557600080fd5b600160009054906101000a900473ffffffffffffffffffffffffffffffffffffffff1673ffffffffffffffffffffffffffffffffffffffff166108fc600560643481151561076f57fe5b04029081150290604051600060405180830381858888f1935050505015801561079c573d6000803e3d6000fd5b508073ffffffffffffffffffffffffffffffffffffffff166108fc605f6064348115156107c557fe5b04029081150290604051600060405180830381858888f193505050501580156107f2573d6000803e3d6000fd5b507ff4aa97c391114a53759634ae49d5e1fb00f843ab94786e4ea509e1da6164f51581605f60643481151561082357fe5b0402604051808373ffffffffffffffffffffffffffffffffffffffff1673ffffffffffffffffffffffffffffffffffffffff1681526020018281526020019250505060405180910390a17f64b7273b7d23eceec06ed84ab10de0ae7d599934dd9ef3ccb07a1fed8c667e28600160009054906101000a900473ffffffffffffffffffffffffffffffffffffffff1660056064348115156108bf57fe5b0402604051808373ffffffffffffffffffffffffffffffffffffffff1673ffffffffffffffffffffffffffffffffffffffff1681526020018281526020019250505060405180910390a150565b828054600181600116156101000203166002900490600052602060002090601f016020900481019282601f1061094d57805160ff191683800117855561097b565b8280016001018555821561097b579182015b8281111561097a57825182559160200191906001019061095f565b5b509050610988919061098c565b5090565b6109ae91905b808211156109aa576000816000905550600101610992565b5090565b9056fea165627a7a72305820ac194f7b07720deb77e03aab23dc4bbaa882be576c9b017d4554d59995123a360029",
  "source": "pragma solidity ^0.5.0;\n\ncontract Thread {\n    string public name;\n    address payable public myPublicKey = 0x55fAaa5Ff75f6387e066DdA8EA587Ce8801c9BD5;\n    uint public replyCount = 0;\n    mapping(uint => Reply) public replies;\n\n    struct Reply {\n        uint id;\n        address payable poster;\n        string content;\n    }\n\n    event ReplyAdded(\n        uint id,\n        address payable poster,\n        string content\n    );\n\n    event ReplyFunded(\n        address payable to,\n        uint weiEarned\n    ); \n\n    event TransactionFeeProcessed(\n        address payable to,\n        uint weiEarned\n    );\n\n    constructor() public {\n        name = \"Ephemeral Main Thread\";\n    }\n\n    function addReply(string memory _content) public {\n        // require content of length...\n        require(bytes(_content).length > 0 && bytes(_content).length <= 999);\n\n        // reset to 0 if reply count too high\n        if(replyCount == 99) {\n            replyCount = 0;\n        } else {\n            replyCount++;\n        }\n\n        // Create the reply - overwriting as necessary\n        replies[replyCount] = Reply(replyCount, msg.sender, _content);\n        // Trigger an event\n        emit ReplyAdded(replyCount, msg.sender, _content);\n    }\n\n    function payPoster(address payable _to) public payable {\n        // Require that there is enough Ether in the transaction\n        require(msg.value > 0);\n\n        // can I show Wei earned somehow but associate it with the person's ID\n\n        // Deposit my transaction fee\n        address(myPublicKey).transfer((msg.value / 100) * 5);\n\n        // Pay the seller by sending them Ether\n        address(_to).transfer((msg.value / 100) * 95);\n\n        // Trigger an event\n        emit ReplyFunded(_to, (msg.value / 100) * 95);\n        emit TransactionFeeProcessed(myPublicKey, (msg.value / 100) * 5);\n    }\n}\n",
  "sourcePath": "/Users/joshsimmons/Documents/GitHub/ephemeral/src/contracts/Thread.sol",
  "compiler": {
    "name": "solc",
    "version": "0.5.0+commit.1d4f565a.Emscripten.clang"
  },
  "schemaVersion": "3.0.1",
  "updatedAt": "2021-12-29T16:39:43.065Z",
  "devdoc": {
    "methods": {}
  },
  "userdoc": {
    "methods": {}
  }
}